{
  "contractName": "mainERC721",
  "abi": [
    {
      "inputs": [],
      "stateMutability": "nonpayable",
      "type": "constructor"
    },
    {
      "anonymous": false,
      "inputs": [
        {
          "indexed": true,
          "internalType": "address",
          "name": "owner",
          "type": "address"
        },
        {
          "indexed": true,
          "internalType": "address",
          "name": "approved",
          "type": "address"
        },
        {
          "indexed": true,
          "internalType": "uint256",
          "name": "tokenId",
          "type": "uint256"
        }
      ],
      "name": "Approval",
      "type": "event"
    },
    {
      "anonymous": false,
      "inputs": [
        {
          "indexed": true,
          "internalType": "address",
          "name": "owner",
          "type": "address"
        },
        {
          "indexed": true,
          "internalType": "address",
          "name": "operator",
          "type": "address"
        },
        {
          "indexed": false,
          "internalType": "bool",
          "name": "approved",
          "type": "bool"
        }
      ],
      "name": "ApprovalForAll",
      "type": "event"
    },
    {
      "anonymous": false,
      "inputs": [
        {
          "indexed": true,
          "internalType": "address",
          "name": "from",
          "type": "address"
        },
        {
          "indexed": true,
          "internalType": "address",
          "name": "to",
          "type": "address"
        },
        {
          "indexed": true,
          "internalType": "uint256",
          "name": "tokenId",
          "type": "uint256"
        }
      ],
      "name": "Transfer",
      "type": "event"
    },
    {
      "inputs": [
        {
          "internalType": "address",
          "name": "to",
          "type": "address"
        },
        {
          "internalType": "uint256",
          "name": "tokenId",
          "type": "uint256"
        }
      ],
      "name": "approve",
      "outputs": [],
      "stateMutability": "nonpayable",
      "type": "function"
    },
    {
      "inputs": [
        {
          "internalType": "address",
          "name": "owner",
          "type": "address"
        }
      ],
      "name": "balanceOf",
      "outputs": [
        {
          "internalType": "uint256",
          "name": "",
          "type": "uint256"
        }
      ],
      "stateMutability": "view",
      "type": "function"
    },
    {
      "inputs": [],
      "name": "direccionLoteria",
      "outputs": [
        {
          "internalType": "address",
          "name": "",
          "type": "address"
        }
      ],
      "stateMutability": "view",
      "type": "function"
    },
    {
      "inputs": [
        {
          "internalType": "uint256",
          "name": "tokenId",
          "type": "uint256"
        }
      ],
      "name": "getApproved",
      "outputs": [
        {
          "internalType": "address",
          "name": "",
          "type": "address"
        }
      ],
      "stateMutability": "view",
      "type": "function"
    },
    {
      "inputs": [
        {
          "internalType": "address",
          "name": "owner",
          "type": "address"
        },
        {
          "internalType": "address",
          "name": "operator",
          "type": "address"
        }
      ],
      "name": "isApprovedForAll",
      "outputs": [
        {
          "internalType": "bool",
          "name": "",
          "type": "bool"
        }
      ],
      "stateMutability": "view",
      "type": "function"
    },
    {
      "inputs": [],
      "name": "name",
      "outputs": [
        {
          "internalType": "string",
          "name": "",
          "type": "string"
        }
      ],
      "stateMutability": "view",
      "type": "function"
    },
    {
      "inputs": [
        {
          "internalType": "uint256",
          "name": "tokenId",
          "type": "uint256"
        }
      ],
      "name": "ownerOf",
      "outputs": [
        {
          "internalType": "address",
          "name": "",
          "type": "address"
        }
      ],
      "stateMutability": "view",
      "type": "function"
    },
    {
      "inputs": [
        {
          "internalType": "address",
          "name": "from",
          "type": "address"
        },
        {
          "internalType": "address",
          "name": "to",
          "type": "address"
        },
        {
          "internalType": "uint256",
          "name": "tokenId",
          "type": "uint256"
        }
      ],
      "name": "safeTransferFrom",
      "outputs": [],
      "stateMutability": "nonpayable",
      "type": "function"
    },
    {
      "inputs": [
        {
          "internalType": "address",
          "name": "from",
          "type": "address"
        },
        {
          "internalType": "address",
          "name": "to",
          "type": "address"
        },
        {
          "internalType": "uint256",
          "name": "tokenId",
          "type": "uint256"
        },
        {
          "internalType": "bytes",
          "name": "data",
          "type": "bytes"
        }
      ],
      "name": "safeTransferFrom",
      "outputs": [],
      "stateMutability": "nonpayable",
      "type": "function"
    },
    {
      "inputs": [
        {
          "internalType": "address",
          "name": "operator",
          "type": "address"
        },
        {
          "internalType": "bool",
          "name": "approved",
          "type": "bool"
        }
      ],
      "name": "setApprovalForAll",
      "outputs": [],
      "stateMutability": "nonpayable",
      "type": "function"
    },
    {
      "inputs": [
        {
          "internalType": "bytes4",
          "name": "interfaceId",
          "type": "bytes4"
        }
      ],
      "name": "supportsInterface",
      "outputs": [
        {
          "internalType": "bool",
          "name": "",
          "type": "bool"
        }
      ],
      "stateMutability": "view",
      "type": "function"
    },
    {
      "inputs": [],
      "name": "symbol",
      "outputs": [
        {
          "internalType": "string",
          "name": "",
          "type": "string"
        }
      ],
      "stateMutability": "view",
      "type": "function"
    },
    {
      "inputs": [
        {
          "internalType": "uint256",
          "name": "tokenId",
          "type": "uint256"
        }
      ],
      "name": "tokenURI",
      "outputs": [
        {
          "internalType": "string",
          "name": "",
          "type": "string"
        }
      ],
      "stateMutability": "view",
      "type": "function"
    },
    {
      "inputs": [
        {
          "internalType": "address",
          "name": "from",
          "type": "address"
        },
        {
          "internalType": "address",
          "name": "to",
          "type": "address"
        },
        {
          "internalType": "uint256",
          "name": "tokenId",
          "type": "uint256"
        }
      ],
      "name": "transferFrom",
      "outputs": [],
      "stateMutability": "nonpayable",
      "type": "function"
    },
    {
      "inputs": [
        {
          "internalType": "address",
          "name": "_propietario",
          "type": "address"
        },
        {
          "internalType": "uint256",
          "name": "_boleto",
          "type": "uint256"
        }
      ],
      "name": "safeMint",
      "outputs": [],
      "stateMutability": "nonpayable",
      "type": "function"
    }
  ],
  "bytecode": "0x60806040523480156200001157600080fd5b506040518060400160405280600781526020017f4c6f7465726961000000000000000000000000000000000000000000000000008152506040518060400160405280600381526020017f5354450000000000000000000000000000000000000000000000000000000000815250816000908051906020019062000096929190620000f9565b508060019080519060200190620000af929190620000f9565b50505033600660006101000a81548173ffffffffffffffffffffffffffffffffffffffff021916908373ffffffffffffffffffffffffffffffffffffffff1602179055506200020e565b8280546200010790620001a9565b90600052602060002090601f0160209004810192826200012b576000855562000177565b82601f106200014657805160ff191683800117855562000177565b8280016001018555821562000177579182015b828111156200017657825182559160200191906001019062000159565b5b5090506200018691906200018a565b5090565b5b80821115620001a55760008160009055506001016200018b565b5090565b60006002820490506001821680620001c257607f821691505b60208210811415620001d957620001d8620001df565b5b50919050565b7f4e487b7100000000000000000000000000000000000000000000000000000000600052602260045260246000fd5b6129ca806200021e6000396000f3fe608060405234801561001057600080fd5b50600436106100f55760003560e01c80636352211e11610097578063a22cb46511610066578063a22cb46514610284578063b88d4fde146102a0578063c87b56dd146102bc578063e985e9c5146102ec576100f5565b80636352211e146101ea57806370a082311461021a57806395d89b411461024a578063a144819414610268576100f5565b8063095ea7b3116100d3578063095ea7b31461017857806323b872dd1461019457806342842e0e146101b05780635aa0c73d146101cc576100f5565b806301ffc9a7146100fa57806306fdde031461012a578063081812fc14610148575b600080fd5b610114600480360381019061010f9190611df0565b61031c565b604051610121919061216a565b60405180910390f35b6101326103fe565b60405161013f9190612185565b60405180910390f35b610162600480360381019061015d9190611e42565b610490565b60405161016f9190612103565b60405180910390f35b610192600480360381019061018d9190611db4565b6104d6565b005b6101ae60048036038101906101a99190611cae565b6105ee565b005b6101ca60048036038101906101c59190611cae565b61064e565b005b6101d461066e565b6040516101e19190612103565b60405180910390f35b61020460048036038101906101ff9190611e42565b610694565b6040516102119190612103565b60405180910390f35b610234600480360381019061022f9190611c20565b61071b565b6040516102419190612327565b60405180910390f35b6102526107d3565b60405161025f9190612185565b60405180910390f35b610282600480360381019061027d9190611db4565b610865565b005b61029e60048036038101906102999190611d78565b61098b565b005b6102ba60048036038101906102b59190611cfd565b6109a1565b005b6102d660048036038101906102d19190611e42565b610a03565b6040516102e39190612185565b60405180910390f35b61030660048036038101906103019190611c72565b610a6b565b604051610313919061216a565b60405180910390f35b60007f80ac58cd000000000000000000000000000000000000000000000000000000007bffffffffffffffffffffffffffffffffffffffffffffffffffffffff1916827bffffffffffffffffffffffffffffffffffffffffffffffffffffffff191614806103e757507f5b5e139f000000000000000000000000000000000000000000000000000000007bffffffffffffffffffffffffffffffffffffffffffffffffffffffff1916827bffffffffffffffffffffffffffffffffffffffffffffffffffffffff1916145b806103f757506103f682610aff565b5b9050919050565b60606000805461040d9061251b565b80601f01602080910402602001604051908101604052809291908181526020018280546104399061251b565b80156104865780601f1061045b57610100808354040283529160200191610486565b820191906000526020600020905b81548152906001019060200180831161046957829003601f168201915b5050505050905090565b600061049b82610b69565b6004600083815260200190815260200160002060009054906101000a900473ffffffffffffffffffffffffffffffffffffffff169050919050565b60006104e182610694565b90508073ffffffffffffffffffffffffffffffffffffffff168373ffffffffffffffffffffffffffffffffffffffff161415610552576040517f08c379a0000000000000000000000000000000000000000000000000000000008152600401610549906122e7565b60405180910390fd5b8073ffffffffffffffffffffffffffffffffffffffff16610571610bb4565b73ffffffffffffffffffffffffffffffffffffffff1614806105a0575061059f8161059a610bb4565b610a6b565b5b6105df576040517f08c379a00000000000000000000000000000000000000000000000000000000081526004016105d690612307565b60405180910390fd5b6105e98383610bbc565b505050565b6105ff6105f9610bb4565b82610c75565b61063e576040517f08c379a0000000000000000000000000000000000000000000000000000000008152600401610635906121a7565b60405180910390fd5b610649838383610d0a565b505050565b610669838383604051806020016040528060008152506109a1565b505050565b600660009054906101000a900473ffffffffffffffffffffffffffffffffffffffff1681565b6000806106a083611004565b9050600073ffffffffffffffffffffffffffffffffffffffff168173ffffffffffffffffffffffffffffffffffffffff161415610712576040517f08c379a0000000000000000000000000000000000000000000000000000000008152600401610709906122c7565b60405180910390fd5b80915050919050565b60008073ffffffffffffffffffffffffffffffffffffffff168273ffffffffffffffffffffffffffffffffffffffff16141561078c576040517f08c379a000000000000000000000000000000000000000000000000000000000815260040161078390612267565b60405180910390fd5b600360008373ffffffffffffffffffffffffffffffffffffffff1673ffffffffffffffffffffffffffffffffffffffff168152602001908152602001600020549050919050565b6060600180546107e29061251b565b80601f016020809104026020016040519081016040528092919081815260200182805461080e9061251b565b801561085b5780601f106108305761010080835404028352916020019161085b565b820191906000526020600020905b81548152906001019060200180831161083e57829003601f168201915b5050505050905090565b600660009054906101000a900473ffffffffffffffffffffffffffffffffffffffff1673ffffffffffffffffffffffffffffffffffffffff16635d0eaaaf836040518263ffffffff1660e01b81526004016108c09190612103565b60206040518083038186803b1580156108d857600080fd5b505afa1580156108ec573d6000803e3d6000fd5b505050506040513d601f19601f820116820180604052508101906109109190611c49565b73ffffffffffffffffffffffffffffffffffffffff163373ffffffffffffffffffffffffffffffffffffffff161461097d576040517f08c379a0000000000000000000000000000000000000000000000000000000008152600401610974906122a7565b60405180910390fd5b6109878282611041565b5050565b61099d610996610bb4565b838361105f565b5050565b6109b26109ac610bb4565b83610c75565b6109f1576040517f08c379a00000000000000000000000000000000000000000000000000000000081526004016109e8906121a7565b60405180910390fd5b6109fd848484846111cc565b50505050565b6060610a0e82610b69565b6000610a18611228565b90506000815111610a385760405180602001604052806000815250610a63565b80610a428461123f565b604051602001610a539291906120df565b6040516020818303038152906040525b915050919050565b6000600560008473ffffffffffffffffffffffffffffffffffffffff1673ffffffffffffffffffffffffffffffffffffffff16815260200190815260200160002060008373ffffffffffffffffffffffffffffffffffffffff1673ffffffffffffffffffffffffffffffffffffffff16815260200190815260200160002060009054906101000a900460ff16905092915050565b60007f01ffc9a7000000000000000000000000000000000000000000000000000000007bffffffffffffffffffffffffffffffffffffffffffffffffffffffff1916827bffffffffffffffffffffffffffffffffffffffffffffffffffffffff1916149050919050565b610b7281611363565b610bb1576040517f08c379a0000000000000000000000000000000000000000000000000000000008152600401610ba8906122c7565b60405180910390fd5b50565b600033905090565b816004600083815260200190815260200160002060006101000a81548173ffffffffffffffffffffffffffffffffffffffff021916908373ffffffffffffffffffffffffffffffffffffffff160217905550808273ffffffffffffffffffffffffffffffffffffffff16610c2f83610694565b73ffffffffffffffffffffffffffffffffffffffff167f8c5be1e5ebec7d5bd14f71427d1e84f3dd0314c0f7b2291e5b200ac8c7c3b92560405160405180910390a45050565b600080610c8183610694565b90508073ffffffffffffffffffffffffffffffffffffffff168473ffffffffffffffffffffffffffffffffffffffff161480610cc35750610cc28185610a6b565b5b80610d0157508373ffffffffffffffffffffffffffffffffffffffff16610ce984610490565b73ffffffffffffffffffffffffffffffffffffffff16145b91505092915050565b8273ffffffffffffffffffffffffffffffffffffffff16610d2a82610694565b73ffffffffffffffffffffffffffffffffffffffff1614610d80576040517f08c379a0000000000000000000000000000000000000000000000000000000008152600401610d77906121e7565b60405180910390fd5b600073ffffffffffffffffffffffffffffffffffffffff168273ffffffffffffffffffffffffffffffffffffffff161415610df0576040517f08c379a0000000000000000000000000000000000000000000000000000000008152600401610de790612227565b60405180910390fd5b610dfd83838360016113a4565b8273ffffffffffffffffffffffffffffffffffffffff16610e1d82610694565b73ffffffffffffffffffffffffffffffffffffffff1614610e73576040517f08c379a0000000000000000000000000000000000000000000000000000000008152600401610e6a906121e7565b60405180910390fd5b6004600082815260200190815260200160002060006101000a81549073ffffffffffffffffffffffffffffffffffffffff02191690556001600360008573ffffffffffffffffffffffffffffffffffffffff1673ffffffffffffffffffffffffffffffffffffffff168152602001908152602001600020600082825403925050819055506001600360008473ffffffffffffffffffffffffffffffffffffffff1673ffffffffffffffffffffffffffffffffffffffff16815260200190815260200160002060008282540192505081905550816002600083815260200190815260200160002060006101000a81548173ffffffffffffffffffffffffffffffffffffffff021916908373ffffffffffffffffffffffffffffffffffffffff160217905550808273ffffffffffffffffffffffffffffffffffffffff168473ffffffffffffffffffffffffffffffffffffffff167fddf252ad1be2c89b69c2b068fc378daa952ba7f163c4a11628f55a4df523b3ef60405160405180910390a4610fff83838360016114ca565b505050565b60006002600083815260200190815260200160002060009054906101000a900473ffffffffffffffffffffffffffffffffffffffff169050919050565b61105b8282604051806020016040528060008152506114d0565b5050565b8173ffffffffffffffffffffffffffffffffffffffff168373ffffffffffffffffffffffffffffffffffffffff1614156110ce576040517f08c379a00000000000000000000000000000000000000000000000000000000081526004016110c590612247565b60405180910390fd5b80600560008573ffffffffffffffffffffffffffffffffffffffff1673ffffffffffffffffffffffffffffffffffffffff16815260200190815260200160002060008473ffffffffffffffffffffffffffffffffffffffff1673ffffffffffffffffffffffffffffffffffffffff16815260200190815260200160002060006101000a81548160ff0219169083151502179055508173ffffffffffffffffffffffffffffffffffffffff168373ffffffffffffffffffffffffffffffffffffffff167f17307eab39ab6107e8899845ad3d59bd9653f200f220920489ca2b5937696c31836040516111bf919061216a565b60405180910390a3505050565b6111d7848484610d0a565b6111e38484848461152b565b611222576040517f08c379a0000000000000000000000000000000000000000000000000000000008152600401611219906121c7565b60405180910390fd5b50505050565b606060405180602001604052806000815250905090565b60606000600161124e846116c2565b01905060008167ffffffffffffffff811115611293577f4e487b7100000000000000000000000000000000000000000000000000000000600052604160045260246000fd5b6040519080825280601f01601f1916602001820160405280156112c55781602001600182028036833780820191505090505b509050600082602001820190505b600115611358578080600190039150507f3031323334353637383961626364656600000000000000000000000000000000600a86061a8153600a8581611342577f4e487b7100000000000000000000000000000000000000000000000000000000600052601260045260246000fd5b049450600085141561135357611358565b6112d3565b819350505050919050565b60008073ffffffffffffffffffffffffffffffffffffffff1661138583611004565b73ffffffffffffffffffffffffffffffffffffffff1614159050919050565b60018111156114c457600073ffffffffffffffffffffffffffffffffffffffff168473ffffffffffffffffffffffffffffffffffffffff16146114385780600360008673ffffffffffffffffffffffffffffffffffffffff1673ffffffffffffffffffffffffffffffffffffffff16815260200190815260200160002060008282546114309190612431565b925050819055505b600073ffffffffffffffffffffffffffffffffffffffff168373ffffffffffffffffffffffffffffffffffffffff16146114c35780600360008573ffffffffffffffffffffffffffffffffffffffff1673ffffffffffffffffffffffffffffffffffffffff16815260200190815260200160002060008282546114bb91906123db565b925050819055505b5b50505050565b50505050565b6114da83836118f9565b6114e7600084848461152b565b611526576040517f08c379a000000000000000000000000000000000000000000000000000000000815260040161151d906121c7565b60405180910390fd5b505050565b600061154c8473ffffffffffffffffffffffffffffffffffffffff16611b17565b156116b5578373ffffffffffffffffffffffffffffffffffffffff1663150b7a02611575610bb4565b8786866040518563ffffffff1660e01b8152600401611597949392919061211e565b602060405180830381600087803b1580156115b157600080fd5b505af19250505080156115e257506040513d601f19601f820116820180604052508101906115df9190611e19565b60015b611665573d8060008114611612576040519150601f19603f3d011682016040523d82523d6000602084013e611617565b606091505b5060008151141561165d576040517f08c379a0000000000000000000000000000000000000000000000000000000008152600401611654906121c7565b60405180910390fd5b805181602001fd5b63150b7a0260e01b7bffffffffffffffffffffffffffffffffffffffffffffffffffffffff1916817bffffffffffffffffffffffffffffffffffffffffffffffffffffffff1916149150506116ba565b600190505b949350505050565b600080600090507a184f03e93ff9f4daa797ed6e38ed64bf6a1f0100000000000000008310611746577a184f03e93ff9f4daa797ed6e38ed64bf6a1f010000000000000000838161173c577f4e487b7100000000000000000000000000000000000000000000000000000000600052601260045260246000fd5b0492506040810190505b6d04ee2d6d415b85acef810000000083106117a9576d04ee2d6d415b85acef8100000000838161179f577f4e487b7100000000000000000000000000000000000000000000000000000000600052601260045260246000fd5b0492506020810190505b662386f26fc1000083106117fe57662386f26fc1000083816117f4577f4e487b7100000000000000000000000000000000000000000000000000000000600052601260045260246000fd5b0492506010810190505b6305f5e100831061184d576305f5e1008381611843577f4e487b7100000000000000000000000000000000000000000000000000000000600052601260045260246000fd5b0492506008810190505b612710831061189857612710838161188e577f4e487b7100000000000000000000000000000000000000000000000000000000600052601260045260246000fd5b0492506004810190505b606483106118e157606483816118d7577f4e487b7100000000000000000000000000000000000000000000000000000000600052601260045260246000fd5b0492506002810190505b600a83106118f0576001810190505b80915050919050565b600073ffffffffffffffffffffffffffffffffffffffff168273ffffffffffffffffffffffffffffffffffffffff161415611969576040517f08c379a000000000000000000000000000000000000000000000000000000000815260040161196090612287565b60405180910390fd5b61197281611363565b156119b2576040517f08c379a00000000000000000000000000000000000000000000000000000000081526004016119a990612207565b60405180910390fd5b6119c06000838360016113a4565b6119c981611363565b15611a09576040517f08c379a0000000000000000000000000000000000000000000000000000000008152600401611a0090612207565b60405180910390fd5b6001600360008473ffffffffffffffffffffffffffffffffffffffff1673ffffffffffffffffffffffffffffffffffffffff16815260200190815260200160002060008282540192505081905550816002600083815260200190815260200160002060006101000a81548173ffffffffffffffffffffffffffffffffffffffff021916908373ffffffffffffffffffffffffffffffffffffffff160217905550808273ffffffffffffffffffffffffffffffffffffffff16600073ffffffffffffffffffffffffffffffffffffffff167fddf252ad1be2c89b69c2b068fc378daa952ba7f163c4a11628f55a4df523b3ef60405160405180910390a4611b136000838360016114ca565b5050565b6000808273ffffffffffffffffffffffffffffffffffffffff163b119050919050565b6000611b4d611b4884612367565b612342565b905082815260208101848484011115611b6557600080fd5b611b708482856124d9565b509392505050565b600081359050611b8781612938565b92915050565b600081519050611b9c81612938565b92915050565b600081359050611bb18161294f565b92915050565b600081359050611bc681612966565b92915050565b600081519050611bdb81612966565b92915050565b600082601f830112611bf257600080fd5b8135611c02848260208601611b3a565b91505092915050565b600081359050611c1a8161297d565b92915050565b600060208284031215611c3257600080fd5b6000611c4084828501611b78565b91505092915050565b600060208284031215611c5b57600080fd5b6000611c6984828501611b8d565b91505092915050565b60008060408385031215611c8557600080fd5b6000611c9385828601611b78565b9250506020611ca485828601611b78565b9150509250929050565b600080600060608486031215611cc357600080fd5b6000611cd186828701611b78565b9350506020611ce286828701611b78565b9250506040611cf386828701611c0b565b9150509250925092565b60008060008060808587031215611d1357600080fd5b6000611d2187828801611b78565b9450506020611d3287828801611b78565b9350506040611d4387828801611c0b565b925050606085013567ffffffffffffffff811115611d6057600080fd5b611d6c87828801611be1565b91505092959194509250565b60008060408385031215611d8b57600080fd5b6000611d9985828601611b78565b9250506020611daa85828601611ba2565b9150509250929050565b60008060408385031215611dc757600080fd5b6000611dd585828601611b78565b9250506020611de685828601611c0b565b9150509250929050565b600060208284031215611e0257600080fd5b6000611e1084828501611bb7565b91505092915050565b600060208284031215611e2b57600080fd5b6000611e3984828501611bcc565b91505092915050565b600060208284031215611e5457600080fd5b6000611e6284828501611c0b565b91505092915050565b611e7481612465565b82525050565b611e8381612477565b82525050565b6000611e9482612398565b611e9e81856123ae565b9350611eae8185602086016124e8565b611eb78161260b565b840191505092915050565b6000611ecd826123a3565b611ed781856123bf565b9350611ee78185602086016124e8565b611ef08161260b565b840191505092915050565b6000611f06826123a3565b611f1081856123d0565b9350611f208185602086016124e8565b80840191505092915050565b6000611f39602d836123bf565b9150611f448261261c565b604082019050919050565b6000611f5c6032836123bf565b9150611f678261266b565b604082019050919050565b6000611f7f6025836123bf565b9150611f8a826126ba565b604082019050919050565b6000611fa2601c836123bf565b9150611fad82612709565b602082019050919050565b6000611fc56024836123bf565b9150611fd082612732565b604082019050919050565b6000611fe86019836123bf565b9150611ff382612781565b602082019050919050565b600061200b6029836123bf565b9150612016826127aa565b604082019050919050565b600061202e6020836123bf565b9150612039826127f9565b602082019050919050565b6000612051602d836123bf565b915061205c82612822565b604082019050919050565b60006120746018836123bf565b915061207f82612871565b602082019050919050565b60006120976021836123bf565b91506120a28261289a565b604082019050919050565b60006120ba603d836123bf565b91506120c5826128e9565b604082019050919050565b6120d9816124cf565b82525050565b60006120eb8285611efb565b91506120f78284611efb565b91508190509392505050565b60006020820190506121186000830184611e6b565b92915050565b60006080820190506121336000830187611e6b565b6121406020830186611e6b565b61214d60408301856120d0565b818103606083015261215f8184611e89565b905095945050505050565b600060208201905061217f6000830184611e7a565b92915050565b6000602082019050818103600083015261219f8184611ec2565b905092915050565b600060208201905081810360008301526121c081611f2c565b9050919050565b600060208201905081810360008301526121e081611f4f565b9050919050565b6000602082019050818103600083015261220081611f72565b9050919050565b6000602082019050818103600083015261222081611f95565b9050919050565b6000602082019050818103600083015261224081611fb8565b9050919050565b6000602082019050818103600083015261226081611fdb565b9050919050565b6000602082019050818103600083015261228081611ffe565b9050919050565b600060208201905081810360008301526122a081612021565b9050919050565b600060208201905081810360008301526122c081612044565b9050919050565b600060208201905081810360008301526122e081612067565b9050919050565b600060208201905081810360008301526123008161208a565b9050919050565b60006020820190508181036000830152612320816120ad565b9050919050565b600060208201905061233c60008301846120d0565b92915050565b600061234c61235d565b9050612358828261254d565b919050565b6000604051905090565b600067ffffffffffffffff821115612382576123816125dc565b5b61238b8261260b565b9050602081019050919050565b600081519050919050565b600081519050919050565b600082825260208201905092915050565b600082825260208201905092915050565b600081905092915050565b60006123e6826124cf565b91506123f1836124cf565b9250827fffffffffffffffffffffffffffffffffffffffffffffffffffffffffffffffff038211156124265761242561257e565b5b828201905092915050565b600061243c826124cf565b9150612447836124cf565b92508282101561245a5761245961257e565b5b828203905092915050565b6000612470826124af565b9050919050565b60008115159050919050565b60007fffffffff0000000000000000000000000000000000000000000000000000000082169050919050565b600073ffffffffffffffffffffffffffffffffffffffff82169050919050565b6000819050919050565b82818337600083830152505050565b60005b838110156125065780820151818401526020810190506124eb565b83811115612515576000848401525b50505050565b6000600282049050600182168061253357607f821691505b60208210811415612547576125466125ad565b5b50919050565b6125568261260b565b810181811067ffffffffffffffff82111715612575576125746125dc565b5b80604052505050565b7f4e487b7100000000000000000000000000000000000000000000000000000000600052601160045260246000fd5b7f4e487b7100000000000000000000000000000000000000000000000000000000600052602260045260246000fd5b7f4e487b7100000000000000000000000000000000000000000000000000000000600052604160045260246000fd5b6000601f19601f8301169050919050565b7f4552433732313a2063616c6c6572206973206e6f7420746f6b656e206f776e6560008201527f72206f7220617070726f76656400000000000000000000000000000000000000602082015250565b7f4552433732313a207472616e7366657220746f206e6f6e20455243373231526560008201527f63656976657220696d706c656d656e7465720000000000000000000000000000602082015250565b7f4552433732313a207472616e736665722066726f6d20696e636f72726563742060008201527f6f776e6572000000000000000000000000000000000000000000000000000000602082015250565b7f4552433732313a20746f6b656e20616c7265616479206d696e74656400000000600082015250565b7f4552433732313a207472616e7366657220746f20746865207a65726f2061646460008201527f7265737300000000000000000000000000000000000000000000000000000000602082015250565b7f4552433732313a20617070726f766520746f2063616c6c657200000000000000600082015250565b7f4552433732313a2061646472657373207a65726f206973206e6f74206120766160008201527f6c6964206f776e65720000000000000000000000000000000000000000000000602082015250565b7f4552433732313a206d696e7420746f20746865207a65726f2061646472657373600082015250565b7f4e6f207469656e6573207065726d69736f73207061726120656a65637574617260008201527f20657374612066756e63696f6e00000000000000000000000000000000000000602082015250565b7f4552433732313a20696e76616c696420746f6b656e2049440000000000000000600082015250565b7f4552433732313a20617070726f76616c20746f2063757272656e74206f776e6560008201527f7200000000000000000000000000000000000000000000000000000000000000602082015250565b7f4552433732313a20617070726f76652063616c6c6572206973206e6f7420746f60008201527f6b656e206f776e6572206f7220617070726f76656420666f7220616c6c000000602082015250565b61294181612465565b811461294c57600080fd5b50565b61295881612477565b811461296357600080fd5b50565b61296f81612483565b811461297a57600080fd5b50565b612986816124cf565b811461299157600080fd5b5056fea2646970667358221220bc9f10c5fd603b18617582709a6bbc7890fbeb1df28a442899deca80d7ca30bd64736f6c63430008040033",
  "immutableReferences": {},
  "source": "// SPDX-License-Identifier: MIT\npragma solidity ^0.8.4;\n\nimport \"@openzeppelin/contracts/token/ERC20/ERC20.sol\";\nimport \"@openzeppelin/contracts/token/ERC721/ERC721.sol\";\nimport \"@openzeppelin/contracts/access/Ownable.sol\";\n\ncontract loteria is ERC20, Ownable {\n\n    // ============================================\n    // Gestion de los tokens\n    // ============================================\n\n    // Direccion del contrato NFT del proyecto\n    address public nft;\n\n    // Constructor \n    constructor() ERC20(\"Loteria\", \"JA\"){\n        _mint(address(this), 100000);\n        nft = address(new mainERC721());\n    }\n\n    // Ganador del premio de la loteria\n    address public ganador;\n\n    // Registro del usuario\n    mapping(address => address) public usuario_contract;\n\n    // Precio de los tokens ERC-20\n    function precioTokens(uint256 _numTokens) internal pure returns (uint256){\n        return _numTokens * (1 ether);\n    }\n\n    // Visualizacion del balance de tokens ERC-20 de un usuario\n    function balanceTokens(address _account) public view returns (uint256){\n        return balanceOf(_account);\n    }\n\n    // Visualizacion del balance de tokens ERC-20 del Smart Contract\n    function balanceTokensSC() public view returns (uint256){\n        return balanceOf(address(this));\n    }\n\n    // Visualizacion del balance de ethers del Smart Contract\n    function balanceEthersSC() public view returns (uint256){\n        return address(this).balance / 10**18;\n    }\n\n    // Generacion de nuevos Tokens ERC-20\n    function mint(uint256 _cantidad) public onlyOwner {\n        _mint(address(this), _cantidad);\n    }\n\n    // Registro de usuarios\n    function registrar() internal {\n        address addr_personal_contract = address(new boletosNFTs(msg.sender, address(this), nft));\n        usuario_contract[msg.sender] = addr_personal_contract; \n    }\n\n    // Informacion de un usuario\n    function usersInfo(address _account) public view returns (address){\n        return usuario_contract[_account];\n    }\n\n    // Compra de tokens ERC-20\n    function compraTokens(uint256 _numTokens) public payable {\n        // Registro del ususario\n        if(usuario_contract[msg.sender] == address(0)){\n            registrar();\n        }\n        // Establecimiento del coste de los tokens a comprar\n        uint256 coste = precioTokens(_numTokens);\n        // Evaluacion del dinero que el cliente paga por los tokens\n        require(msg.value >= coste, \"Compra menos tokens o paga con mas ethers\");\n        // Obtencion del numero de tokens ERC-20 disponibles\n        uint256 balance = balanceTokensSC();\n        require(_numTokens <= balance, \"Compra un numero menor de tokens\");\n        // Devolucion del dinero sobrante\n        uint256 returnValue = msg.value - coste;\n        // El Smart Contract devuelve la cantidad restante\n        payable(msg.sender).transfer(returnValue);\n        // Envio de los tokens al cliente/usuario\n        _transfer(address(this), msg.sender, _numTokens);\n    }\n\n    // Devolucion de tokens al Smart Contract\n    function devolverTokens(uint _numTokens) public payable {\n        // El numero de tokens debe ser mayor a 0\n        require(_numTokens > 0, \"Necesitas devolver un numero de tokens mayor a 0\");\n        // El usuario debe acreditar tener los tokens que quiere devolver\n        require(_numTokens <= balanceTokens(msg.sender), \"No tienes los tokens que deseas devolver\");\n        // El usuario transfiere los tokens al Smart Contract\n        _transfer(msg.sender, address(this), _numTokens);\n        // El Smart Contract envia los ethers al usuario\n        payable(msg.sender).transfer(precioTokens(_numTokens));\n    }\n\n    // ============================================\n    // Gestion de la loteria\n    // ============================================\n\n    // Precio del boleto de loteria (en tokens ERC-20)\n    uint public precioBoleto = 5;\n    // Relacion: persona que compra los boletos -> el numero de los boletos\n    mapping(address => uint []) idPersona_boletos;\n    // Relacion: boleto -> ganador\n    mapping(uint => address) ADNBoleto;\n    // Numero aleatorio\n    uint randNonce = 0;\n    // Boletos de la loteria generadors\n    uint [] boletosComprados;\n\n    // Compra de boletos de loteria\n    function compraBoleto(uint _numBoletos) public {\n        // Precio total de los boletos a comprar\n        uint precioTotal = _numBoletos*precioBoleto;\n        // Verificacion de los tokens del usuario\n        require(precioTotal <= balanceTokens(msg.sender), \n                \"No tienes tokens suficientes\");\n        // Transferencia de tokens del usuario al Smart Contract\n        _transfer(msg.sender, address(this), precioTotal);\n        /* Recoge la marca de tiempo (block.timestamp), msg.sender y un Nonce\n        (un numero que solo se utiliza una vez, para que no ejecutemos dos veces la misma \n        funcion de hash con los mismos parametros de entrada) en incremento.\n        Se utiliza 'keccak256 'para convertir estas entradas a un hash aleatorio, \n        convertir ese hash a un uint y luego utilizamos % 10000 para tomar los ultimos 4 digitos,\n        dando un valor aleatorio entre 0 - 9999. */\n        for (uint i = 0; i < _numBoletos; i++){\n            uint random = uint(keccak256(abi.encodePacked(block.timestamp, msg.sender, randNonce))) % 10000;\n            randNonce++;\n            // Almacenamiento de los datos del boletos enlazados al usuario\n            idPersona_boletos[msg.sender].push(random);\n            // Almacenamiento de los datos de los boletos\n            boletosComprados.push(random);\n            // Asignacion del ADN del boleto para la generacion de un ganador\n            ADNBoleto[random] = msg.sender;\n            // Creacion de un nuevo NFT para el numero de boleto\n            boletosNFTs(usuario_contract[msg.sender]).mintBoleto(msg.sender, random);\n        }\n    }\n\n    // Visualizacion de los boletos del usuario\n    function tusBoletos(address _propietario) public view returns(uint [] memory){\n        return idPersona_boletos[_propietario];\n    }\n\n    // Generacion del ganador de la loteria\n    function generarGanador() public onlyOwner {\n        // Declaracion de la longitud del array\n        uint longitud = boletosComprados.length;\n        // Verificacion de la compra de al menos de 1 boleto\n        require(longitud > 0, \"No hay boletos comprados\");\n        // Eleccion aleatoria de un numero entre: [0-Longitud]\n        uint random = uint(uint(keccak256(abi.encodePacked(block.timestamp))) % longitud);\n        // Seleccion del numero aleatorio\n        uint eleccion = boletosComprados[random];\n        // Direccion del ganador de la loteria\n        ganador = ADNBoleto[eleccion];\n        // Envio del 95% del premio de loteria al ganador\n        payable(ganador).transfer(address(this).balance * 95 / 100);\n        // Envio del 5% del premio de loteria al owner\n        payable(owner()).transfer(address(this).balance * 5 / 100);\n    }\n\n}\n\n// Smart Contract de NFTs\ncontract mainERC721 is ERC721 {\n\n    address public direccionLoteria;\n    constructor() ERC721(\"Loteria\", \"STE\"){\n        direccionLoteria = msg.sender;\n    }\n\n    // Creacion de NFTs\n    function safeMint(address _propietario, uint256 _boleto) public {\n        require(msg.sender == loteria(direccionLoteria).usersInfo(_propietario),\n                \"No tienes permisos para ejecutar esta funcion\");\n        _safeMint(_propietario, _boleto);\n    }\n\n}\n\ncontract boletosNFTs {\n\n    // Datos relevantes del propietario \n    struct Owner {\n        address direccionPropietario;\n        address contratoPadre;\n        address contratoNFT;\n        address contratoUsuario;\n    }\n    // Estructura de datos de tipo Owner\n    Owner public propietario;\n\n    // Constructor del Smart Contract (hijo)\n    constructor(address _propietario, address _contratoPadre, address _contratoNFT){\n        propietario = Owner(_propietario, \n                            _contratoPadre,\n                            _contratoNFT, \n                            address(this));\n    }\n\n    // Conversion de los numeros de los boletos de loteria\n    function mintBoleto(address _propietario, uint _boleto) public {\n        require(msg.sender == propietario.contratoPadre, \n                \"No tienes permisos para ejecutar esta funcion\");\n        mainERC721(propietario.contratoNFT).safeMint(_propietario, _boleto);\n    }\n\n}\n",
  "sourcePath": "C:\\Users\\jpp28\\Desktop\\Lotery\\src\\contracts\\loteria.sol",
  "compiler": {
    "name": "solc",
    "version": "0.8.4+commit.c7e474f2.Emscripten.clang"
  },
  "schemaVersion": "3.4.11",
  "updatedAt": "2023-01-12T20:28:27.141Z",
  "devdoc": {
    "kind": "dev",
    "methods": {
      "approve(address,uint256)": {
        "details": "See {IERC721-approve}."
      },
      "balanceOf(address)": {
        "details": "See {IERC721-balanceOf}."
      },
      "getApproved(uint256)": {
        "details": "See {IERC721-getApproved}."
      },
      "isApprovedForAll(address,address)": {
        "details": "See {IERC721-isApprovedForAll}."
      },
      "name()": {
        "details": "See {IERC721Metadata-name}."
      },
      "ownerOf(uint256)": {
        "details": "See {IERC721-ownerOf}."
      },
      "safeTransferFrom(address,address,uint256)": {
        "details": "See {IERC721-safeTransferFrom}."
      },
      "safeTransferFrom(address,address,uint256,bytes)": {
        "details": "See {IERC721-safeTransferFrom}."
      },
      "setApprovalForAll(address,bool)": {
        "details": "See {IERC721-setApprovalForAll}."
      },
      "supportsInterface(bytes4)": {
        "details": "See {IERC165-supportsInterface}."
      },
      "symbol()": {
        "details": "See {IERC721Metadata-symbol}."
      },
      "tokenURI(uint256)": {
        "details": "See {IERC721Metadata-tokenURI}."
      },
      "transferFrom(address,address,uint256)": {
        "details": "See {IERC721-transferFrom}."
      }
    },
    "version": 1
  },
  "userdoc": {
    "kind": "user",
    "methods": {},
    "version": 1
  }
}